:100000000C9458000C9480000C9480000C94800098
:100010000C9480000C9480000C9480000C94800060
:100020000C9480000C9480000C9480000C94800050
:100030000C9480000C9480000C9480000C94800040
:100040000C94BD030C9480000C948B030C946503FA
:100050000C9480000C9480000C9480000C94800020
:100060000C9407040C948000000000002500280078
:100070002B00040404040404040402020202020229
:10008000030303030303010204081020408001025C
:1000900004081020010204081020000000080002DB
:1000A0000100000304070000000000000000260516
:1000B00011241FBECFEFD8E0DEBFCDBF11E0A0E01E
:1000C000B1E0EEE6F4E102C005900D92AE34B10766
:1000D000D9F722E0AEE4B1E001C01D92A13CB20725
:1000E000E1F710E0C8E5D0E004C02197FE010E94CE
:1000F0002F0AC735D107C9F70E9499050C94350A14
:100100000C940000982F20910A0281E0213208F01F
:1001100043C08091E6018111FCCF8091090232E059
:100120003093E6019093E5019FEF9093E4011092E4
:10013000E3012093E201A9EEB1E0E2ECF1E090E00E
:10014000291331C01092C1019091C101880F892BF0
:100150008093C1018091C001813049F51092C001A6
:100160008091C1018093BB008091BC0083FDF8CFDA
:1001700085EC8093BC008091E6018230E1F38091B0
:10018000E4018F3FB1F08091E4018032A1F08091D1
:10019000E401803391F084E01092E80110920A02A9
:1001A0001092E70108953D9131939F5FC9CF85EE8D
:1001B000E0CF80E0F1CF82E0EFCF83E0EDCF90E0C1
:1001C000FC01E656FF4F2491FC01EA57FF4F3491A2
:1001D000FC01EE58FF4FE491EE23B1F0222339F0F9
:1001E0002330E9F090F4213001F1223011F1F0E0F8
:1001F000EE0FFF1FE859FF4FA591B4918FB7F89408
:10020000EC913E2B3C938FBF08952730A9F0283006
:10021000C9F0243061F7809180008F7D03C0809108
:1002200080008F7780938000E2CF84B58F7784BD84
:10023000DECF84B58F7DFBCF8091B0008F77809328
:10024000B000D5CF8091B0008F7DF9CF089508958B
:10025000AF92BF92CF92DF92EF92FF920F931F93D4
:10026000CF93DF936C017B018B01040F151FEB0112
:100270005E01AE18BF08C017D10759F06991D601C9
:10028000ED91FC910190F081E02DC6010995892B3B
:1002900079F7C501DF91CF911F910F91FF90EF90FA
:1002A000DF90CF90BF90AF900895FC01538D448DA7
:1002B000252F30E0842F90E0821B930B541710F011
:1002C000CF96089501970895FC01918D828D98171E
:1002D00061F0A28DAE0FBF2FB11D5D968C91928DF6
:1002E0009F5F9F73928F90E008958FEF9FEF089527
:1002F000FC01918D828D981731F0828DE80FF11DF0
:10030000858D90E008958FEF9FEF0895FC01918D0A
:10031000228D892F90E0805C9F4F821B91098F7303
:10032000992708958BE092E00E94860121E0892BB5
:1003300009F420E0822F089580E090E0892B29F0D5
:100340000E94920181110C9400000895FC01A48D7B
:10035000A80FB92FB11DA35ABF4F2C91848D90E0E7
:1003600001968F739927848FA689B7892C93A089CA
:10037000B1898C91837080648C93938D848D981354
:1003800006C00288F389E02D80818F7D80830895E7
:10039000EF92FF920F931F93CF93DF93EC0181E0D5
:1003A000888F9B8D8C8D98131AC0E889F98980817C
:1003B00085FF15C09FB7F894EE89FF896083E889AF
:1003C000F98980818370806480839FBF81E090E0A1
:1003D000DF91CF911F910F91FF90EF900895F62E2E
:1003E0000B8D10E00F5F1F4F0F731127E02E8C8DC8
:1003F0008E110CC00FB607FCFACFE889F98980810D
:1004000085FFF5CFCE010E94A601F1CFEB8DEC0F59
:10041000FD2FF11DE35AFF4FF0829FB7F8940B8F29
:10042000EA89FB8980818062CFCFCF93DF93EC0193
:10043000888D8823B9F0AA89BB89E889F9898C91CC
:1004400085FD03C0808186FD0DC00FB607FCF7CF88
:100450008C9185FFF2CF808185FFEDCFCE010E9488
:10046000A601E9CFDF91CF9108953FB7F89480912D
:10047000960190919701A0919801B091990126B5AC
:10048000A89B05C02F3F19F00196A11DB11D3FBFCC
:10049000BA2FA92F982F8827BC01CD01620F711D9B
:1004A000811D911D42E0660F771F881F991F4A9595
:1004B000D1F7089585ED8093BC008091BC0084FD48
:1004C000FCCF1092E601089520916E01260F33278C
:1004D000331F21323105ECF42091E601FC0190E05C
:1004E00080E0243069F082E00895A0916E012191AE
:1004F000AC01425B5E4FA40FB52FB11D2C9301964A
:10050000861798F380916E01680F60936E0180E00A
:10051000089581E008950895E0919F0180919E01E2
:10052000E81730F4F0E0E056FE4F808190E0089547
:100530008FEF9FEF089590919F0180919E012FEF83
:100540003FEF981748F4E92FF0E0E056FE4F208186
:1005500030E09F5F90939F01C901089580919E01B3
:1005600090919F01891B990B0895CF92DF92EF9292
:10057000FF920F931F93CF93DF937C01CB018A01EE
:100580002091E701222389F0EB016B01C40ED51EF7
:10059000CC15DD0569F06991D701ED91FC910190D1
:1005A000F081E02DC7010995F3CF642F0E9464020A
:1005B000C801DF91CF911F910F91FF90EF90DF90D5
:1005C000CF900895CF93DF931F92CDB7DEB76983A5
:1005D0002091E7012223F9F020910A02203258F0FD
:1005E00021E030E0FC013383228390E080E00F9033
:1005F000DF91CF9108958091E801E82FF0E0E75175
:10060000FE4F998190838F5F8093E80180930A0267
:1006100081E090E0ECCF61E0CE0101960E9464029F
:10062000F7CF90E080E00895FC0101900020E9F709
:100630003197AF01481B590BBC018BE092E00C9441
:1006400028018F929F92AF92BF920F931F93CF93E7
:10065000DF93CDB7DEB7A1970FB6F894DEBF0FBE1C
:10066000CDBF19A2423008F44AE08E010F5D1F4F42
:10067000842E912CB12CA12CA50194010E940D0A6D
:10068000E62FB901CA01EA30F4F4E05DD801EE9337
:100690008D01232B242B252B79F790E080E01097F8
:1006A00019F0CD010E941403A1960FB6F894DEBF95
:1006B0000FBECDBFDF91CF911F910F91BF90AF9033
:1006C0009F908F900895E95CE1CF1F920F920FB633
:1006D0000F9211242F933F934F935F936F937F93C8
:1006E0008F939F93AF93BF93EF93FF938BE092E031
:1006F0000E94A601FF91EF91BF91AF919F918F91C1
:100700007F916F915F914F913F912F910F900FBE0D
:100710000F901F9018951F920F920FB60F921124F1
:100720002F938F939F93EF93FF93E0911B02F09190
:100730001C028081E0912102F091220282FD1BC007
:100740009081809124028F5F8F7320912502821700
:1007500041F0E0912402F0E0E55FFD4F958F80933A
:100760002402FF91EF919F918F912F910F900FBED7
:100770000F901F9018958081F4CF1F920F920FB6A3
:100780000F9211242F933F938F939F93AF93BF9317
:100790008091920190919301A0919401B091950163
:1007A0003091910123E0230F2D3758F50196A11DBB
:1007B000B11D209391018093920190939301A09396
:1007C0009401B09395018091960190919701A09129
:1007D0009801B09199010196A11DB11D80939601D8
:1007E00090939701A0939801B0939901BF91AF9115
:1007F0009F918F913F912F910F900FBE0F901F905F
:10080000189526E8230F0296A11DB11DD2CF1F9285
:100810000F920FB60F9211242F933F934F935F9334
:100820006F937F938F939F93AF93BF93EF93FF93B8
:100830008091B900887F803609F44AC0F0F588328B
:1008400009F4A7C018F5803109F49BC0B8F48823D7
:1008500009F4F9C0883009F494C0FF91EF91BF9179
:10086000AF919F918F917F916F915F914F913F9148
:100870002F910F900FBE0F901F901895883109F49B
:1008800088C0803251F78093E40114C0803409F4A9
:100890009DC040F48033B9F38833F9F68093E401C6
:1008A00085ECB0C0803509F485C0883509F496C060
:1008B000883499F60E945A02D0CF883909F48CC046
:1008C00038F5883729F050F4883611F0803729F64A
:1008D00083E08093E6011092900157C0883809F4B4
:1008E0007BC0803919F0803809F0B7CF8091900132
:1008F000803208F071C0E091900181E08E0F80930A
:1009000090018091BB00F0E0E059FE4F80833DC034
:10091000803B39F0E0F4803A09F479C0883A09F074
:100920009CCF84E08093E60110926F0110926E01DB
:10093000E0919C01F0919D01099580916E018111DA
:100940000FC081E080936E0110924E0109C0803C7F
:1009500009F4A6CF883C09F4A3CF883B09F07DCFEA
:10096000E0916F0181E08E0F80936F01F0E0E25B18
:10097000FE4F80818093BB0090916F0180916E014A
:1009800029C08091C1018093BB0085EC8093BC009D
:1009900064CF9091E3018091E201981758F5E091BE
:1009A000E30181E08E0F8093E301F0E0EE53FE4F10
:1009B0008081E9CFE091E30181E08E0F8093E30134
:1009C0008091BB00F0E0EE53FE4F80839091E301F5
:1009D0008091E2019817C8F285E8D8CFE091E30151
:1009E00081E08E0F8093E3018091BB00F0E0EE5335
:1009F000FE4F80838091E50181115CCF81E080937F
:100A0000C00184EA8093BC001092E60126CF85ECF9
:100A10008093BC001092E60180919001803230F406
:100A2000E0919001F0E0E059FE4F1082609190015A
:100A300070E0E0919A01F0919B0180E791E00995C7
:100A4000109290010ACF1092E40134CFCF93DF933C
:100A5000EBE0F2E01382128288EE93E0A0E0B0E0D7
:100A600084839583A683B7832EE031E0318320838E
:100A700025EC30E03587248724EC30E03787268763
:100A800020EC30E0318B208B21EC30E0338B228B5B
:100A900022EC30E0358B248B26EC30E0378B268B34
:100AA000118E128E138E148EE8EAF2E013821282F7
:100AB00084839583A683B78380E291E091838083CA
:100AC000C4EBD2E0F983E88388E48A83E4E0F1E0D0
:100AD000FC87EB8791819B838081891B990B61E067
:100AE00070E09B0102C0220F331F8A95E2F7C90113
:100AF0009195819591099D838C8382818E8302C01B
:100B0000660F771F8A95E2F7072E000C880B990B6A
:100B10000E94E6089B01AC0160E070E080E89FE382
:100B20000E9443086F83788789879A87DF91CF91E6
:100B30000895789484B5826084BD84B5816084BD55
:100B400085B5826085BD85B5816085BD80916E006B
:100B5000816080936E00109281008091810082609C
:100B600080938100809181008160809381008091D9
:100B700080008160809380008091B10084608093C8
:100B8000B1008091B00081608093B00080917A00C4
:100B9000846080937A0080917A00826080937A00EA
:100BA00080917A00816080937A0080917A008068D9
:100BB00080937A001092C100E0911B02F0911C0218
:100BC00082E08083E0911702F09118021082E09198
:100BD0001902F0911A028FEC808310922302E091A7
:100BE0001F02F091200286E08083E0911D02F091C7
:100BF0001E02808180618083E0911D02F0911E02BF
:100C0000808188608083E0911D02F0911E028081C6
:100C100080688083E0911D02F0911E0280818F7DAB
:100C2000808310929F0110929E011092E801109211
:100C30000A021092E60181E08093E5011092C00162
:100C400082E10E94DF0083E10E94DF008091B90011
:100C50008E7F8093B9008091B9008D7F8093B90019
:100C600088E48093B80085E48093BC0086E291E03C
:100C700090939D0180939C0187E291E090939B016A
:100C800080939A013324339495EC292E00E010E0F0
:100C90008EE291E00E941403E091BF02F091C00245
:100CA0000480F581E02D60818091B4029091B502BD
:100CB0002091B6023092E701209309021092E801D8
:100CC00010920A02DC01ED91FC910190F081E02D7F
:100CD000099581E00E9482008091B702893008F472
:100CE000C2C082E09091E6019111FCCF9091B602D2
:100CF0003092E6013092E501BFEFB093E40110922B
:100D0000E3012FEF280F2093E2013092C1012091DF
:100D1000C101990F922B9093C1019091C001913024
:100D200009F0A3C01092C0019091C1019093BB0043
:100D30009091BC0093FDF8CF2092BC009091E60109
:100D40009130E1F39091E301981710F48091E30161
:100D5000A2ECB1E0E0EAF1E090E098138AC01092D2
:100D60009F0190939E018091B4029091B502DC01A5
:100D7000ED91FC910284F385E02D0995D82FB0E028
:100D8000CB2F8091B702893068F08091B4029091A6
:100D9000B502DC01ED91FC910284F385E02D09950B
:100DA000C82BD92B81E00E9482006091B80270911B
:100DB000B9026C237D23072E000C880B990B0E942F
:100DC000E6082091BB023091BC024091BD025091D7
:100DD000BE020E949B096B017C014B015C01AC01CE
:100DE0009B010E94080A882309F447C08CE391E024
:100DF0000E94140388E491E00E9414038BE491E0C4
:100E00000E9414030E9435024B015C0188E8C82E41
:100E100083E1D82EE12CF12C0E9435026819790962
:100E20008A099B09683E734081059105A8F3B1E0EA
:100E3000CB1AD108E108F10828EE820E23E0921EB9
:100E4000A11CB11CC114D104E104F10429F701155E
:100E5000110509F41DCF0E949201882309F418CFCF
:100E60000E94000015CF81E03DCF25EE2093BC000D
:100E700065CF2D9121939F5F70CF26013701E894B4
:100E800077F82FEF3FEF4FE75FE7C301B2010E9412
:100E9000080A81110DC02FEF3FEF4FE75FE7C30155
:100EA000B2010E943E0818161CF480E491E0A0CF25
:100EB0002FEF3FEF4FE75FE4C701B6010E949609AD
:100EC00018161CF484E491E093CF2FEF3FEF4FE727
:100ED0005FECC701B6010E943E0887FDF3CF20E01A
:100EE00030E0A901C701B6010E943E0887FF0BC090
:100EF0006DE28BE092E00E94C80146015701B7FA0B
:100F0000B094B7F8B0942AE037ED43EA5BE3C5014B
:100F1000B4010E94D2074B015C010E94B5086B012D
:100F20007C010E94E4089B01AC01C501B4010E9450
:100F3000D1074B015C014AE0C701B6010E942103C1
:100F40006EE28BE092E00E94C80120E030E040E2D7
:100F500051E4C501B4010E949B094B015C010E9450
:100F6000B5086B01F12CE12C4AE0C701B6010E94E3
:100F70002103C701B6010E94E4089B01AC01C50131
:100F8000B4010E94D10720E030E040E251E40E9429
:100F90009B090E94B50890E080E04AE00E9421038E
:100FA00029CF5058BB27AA270E94E9070C945C0957
:100FB0000E944E0938F00E94550920F039F49F3FF5
:100FC00019F426F40C944B090EF4E095E7FB0C940D
:100FD0004509E92F0E946D0958F3BA176207730794
:100FE0008407950720F079F4A6F50C948F090EF488
:100FF000E0950B2EBA2FA02D0B01B90190010C0129
:10100000CA01A0011124FF27591B99F0593F50F440
:10101000503E68F11A16F040A22F232F342F442798
:10102000585FF3CF469537952795A795F040539590
:10103000C9F77EF41F16BA0B620B730B840BBAF060
:101040009150A1F0FF0FBB1F661F771F881FC2F7CB
:101050000EC0BA0F621F731F841F48F487957795DF
:101060006795B795F7959E3F08F0B0CF9395880F99
:1010700008F09927EE0F9795879508950E9421090A
:1010800008F481E008950E9457080C945C090E94BE
:10109000550958F00E944E0940F029F45F3F29F0AD
:1010A0000C94450951110C9490090C944B090E9421
:1010B0006D0968F39923B1F3552391F3951B550BF3
:1010C000BB27AA2762177307840738F09F5F5F4F1B
:1010D000220F331F441FAA1FA9F335D00E2E3AF05A
:1010E000E0E832D091505040E695001CCAF72BD072
:1010F000FE2F29D0660F771F881FBB1F26173707C3
:101100004807AB07B0E809F0BB0B802DBF01FF27F4
:1011100093585F4F3AF09E3F510578F00C94450983
:101120000C9490095F3FE4F3983ED4F3869577954D
:101130006795B795F7959F5FC9F7880F911D9695AD
:10114000879597F90895E1E0660F771F881FBB1F09
:10115000621773078407BA0720F0621B730B840BB6
:10116000BA0BEE1F88F7E09508950E94750988F084
:101170009F5798F0B92F9927B751B0F0E1F0660F5B
:10118000771F881F991F1AF0BA95C9F714C0B1309C
:1011900091F00E948F09B1E008950C948F09672F98
:1011A000782F8827B85F39F0B93FCCF386957795CB
:1011B0006795B395D9F73EF49095809570956195B4
:1011C0007F4F8F4F9F4F0895E89409C097FB3EF4DF
:1011D00090958095709561957F4F8F4F9F4F992384
:1011E000A9F0F92F96E9BB279395F6958795779502
:1011F0006795B795F111F8CFFAF4BB0F11F460FFC2
:101200001BC06F5F7F4F8F4F9F4F16C0882311F019
:1012100096E911C0772321F09EE8872F762F05C02D
:10122000662371F096E8862F70E060E02AF09A95C8
:10123000660F771F881FDAF7880F9695879597F9BD
:101240000895990F0008550FAA0BE0E8FEEF161657
:101250001706E807F907C0F012161306E407F507AA
:1012600098F0621B730B840B950B39F40A2661F01E
:10127000232B242B252B21F408950A2609F4A140C1
:10128000A6958FEF811D811D089597F99F6780E8CE
:1012900070E060E008959FEF80EC089500240A94C8
:1012A0001616170618060906089500240A94121641
:1012B0001306140605060895092E0394000C11F474
:1012C000882352F0BB0F40F4BF2B11F460FF04C021
:1012D0006F5F7F4F8F4F9F4F089557FD9058440F7A
:1012E000551F59F05F3F71F04795880F97FB991F85
:1012F00061F09F3F79F08795089512161306140642
:10130000551FF2CF4695F1DF08C0161617061806CE
:10131000991FF1CF86957105610508940895E894A9
:10132000BB2766277727CB0197F908950E942109EB
:1013300008F48FEF08950E94AE090C945C090E9496
:101340004E0938F00E94550920F0952311F00C94B5
:1013500045090C944B0911240C9490090E946D09C5
:1013600070F3959FC1F3950F50E0551F629FF001F8
:10137000729FBB27F00DB11D639FAA27F00DB11D11
:10138000AA1F649F6627B00DA11D661F829F22279A
:10139000B00DA11D621F739FB00DA11D621F839F21
:1013A000A00D611D221F749F3327A00D611D231FF7
:1013B000849F600D211D822F762F6A2F11249F5745
:1013C00050409AF0F1F088234AF0EE0FFF1FBB1F48
:1013D000661F771F881F91505040A9F79E3F510507
:1013E00080F00C9445090C9490095F3FE4F3983E1B
:1013F000D4F3869577956795B795F795E7959F5FB1
:10140000C1F7FE2B880F911D9695879597F9089542
:101410000E942109880B990B0895A1E21A2EAA1B9C
:10142000BB1BFD010DC0AA1FBB1FEE1FFF1FA21794
:10143000B307E407F50720F0A21BB30BE40BF50B91
:10144000661F771F881F991F1A9469F7609570951A
:10145000809590959B01AC01BD01CF010895EE0FE1
:0E146000FF1F0590F491E02D0994F894FFCF42
:10146E000001020310090809000100000000C80174
:10147E002801550115028601640178010000000063
:10148E00E202B50211038B02AE029B028C0254657E
:10149E006D70657261747572203D20006E616E0014
:0E14AE00696E66006F7666002043000D0A002E
:00000001FF
